:0300000002094AA8
:0C094A00787FE4F6D8FD75813202099137
:100B2E0002210000022400000217000001260A0123
:100B3E001000011300012300011500011400041D13
:100B4E000000000004190000000002110000011650
:040B5E00000108008A
:0D000E007F647E00120C95120D0F020D4450
:100D0F0075890175A882758CFC758A6675B802D2D3
:020D1F008C2224
:0F0D440043891043A888758D4CE4F58BD28E221D
:03001B000206A436
:1006A400C0E0C0D0758D4C758B000514E514B414EE
:1006B40003751400E51845177013F5150518E518AA
:1006C4007002051785242185252202077AC3E525B2
:1006D4009414E5249400500BC3E5229414E521946A
:1006E400004069C3E5259414E5249400401FE525E2
:1006F4009419E52494005015C3E5229414E521943B
:1007040000400AE5229419E5219400403FC3E52501
:100714009419E5249400401FE525941DE5249400D4
:100724005015C3E5229419E5219400400AE522946A
:100734001DE52194004015C3E525941DE52494008E
:10074400401AE522941DE521940040100518E5188F
:1007540070020517852421852522800675170075EA
:100764001800D3E5189490E5179401400975170112
:10077400751890751501E51864907004E517640107
:10078400704AE51564016044C3E5259414E5249496
:100794000050028034C3E5259414E5249400400FEE
:1007A400E5259419E52494005005752601801DC3A0
:1007B400E5259419E5249400400FE525941DE524CE
:1007C40094005005752600800375260AC3E5259418
:1007D4001DE5249400400FE518B4900AE517B40110
:0E07E400057523018003752300D0D0D0E032CC
:03000B00020A5D89
:100A5D00C0E0C0F0C083C082C0D075D000C000C05F
:0D0A6D0001C002C003C004C005C006C007E0
:100A7A00758CFC758A66E508B52602D2940508E5E8
:100A8A0008B40A09750800E5266002C294E510B4A4
:050A9A000103120D73C1
:100A9F00D007D006D005D004D003D002D001D000AB
:0B0AAF00D0D0D082D083D0F0D0E03255
:10001E00E53264047037E514D3940A5023E50C7569
:10002E00F00A8475F00A84E5F02430FB7D067F0229
:10003E00120C0CE50C75F00A84E5F02430FB802ED2
:10004E007B207D067F02120C0C7B208021E50C7537
:10005E00F00A8475F00A84E5F02430FB7D067F02F9
:10006E00120C0CE50C75F00A84E5F02430FB7D07CC
:10007E007F02120C0CE53264057037E514D3940A36
:10008E005023E50D75F00A8475F00A84E5F02430EE
:10009E00FB7D097F02120C0CE50D75F00A84E5F06C
:1000AE002430FB802E7B207D097F02120C0C7B20DE
:1000BE008021E50D75F00A8475F00A84E5F0243090
:1000CE00FB7D097F02120C0CE50D75F00A84E5F03C
:1000DE002430FB7D0A7F02120C0CE532640170376E
:1000EE00E514D3940A5023E50975F00A8475F00AD5
:1000FE0084E5F02430FB7D087F01120C0CE50975B8
:10010E00F00A84E5F02430FB802E7B207D087F01F1
:10011E00120C0C7B208021E50975F00A8475F00A1B
:10012E0084E5F02430FB7D087F01120C0CE5097587
:10013E00F00A84E5F02430FB7D097F01120C0CE5FA
:10014E003264027037E514D3940A5023E50A75F031
:10015E000A8475F00A84E5F02430FB7D0B7F0112D2
:10016E000C0CE50A75F00A84E5F02430FB802E7B3A
:10017E00207D0B7F01120C0C7B208021E50A75F08F
:10018E000A8475F00A84E5F02430FB7D0B7F0112A2
:10019E000C0CE50A75F00A84E5F02430FB7D0C7F2B
:1001AE0001120C0CE53264037037E514D3940A5037
:1001BE0023E50B75F00A8475F00A84E5F02430FB14
:1001CE007D0E7F01120C0CE50B75F00A84E5F02410
:1001DE0030FB802E7B207D0E7F01120C0C7B20804D
:1001EE0021E50B75F00A8475F00A84E5F02430FBE6
:1001FE007D0E7F01120C0CE50B75F00A84E5F024E0
:10020E0030FB7D0F7F01120C0C7B2D7D087F0212BF
:10021E000C0C7B2D7D0B7F02120C0CE50E75F00A7B
:10022E008475F00A84E5F02430FB7D0C7F02120CFD
:10023E000CE50E75F00A84E5F02430FB7D0D7F028F
:10024E00120C0C7B327D067F01120C0C7B307D076D
:10025E007F01120C0C7B2D7D0A7F01120C0C7B2D65
:10026E007D0D7F01120C0CAE24AF257C007D0A1291
:10027E0006307C007D0A120630ED2430FB7D0F7FA8
:10028E0002120C0CAE24AF257C007D0A120630ED56
:0A029E002430FB7D107F02020C0CDF
:030D7000020C7CF6
:100CC0008F80C2A2C2A3C2A47F01120D5FD2A47FF3
:040CD00001020D5FB1
:100CD4008F80D2A2C2A3C2A47F01120D5FD2A47FCF
:040CE40001020D5F9D
:100C7C007F01120CC07F38120CC07F0C120CC07F8D
:090C8C0006120CC07FD0020CC05E
:020C0C008B2734
:100C0E00BF0103752880BF02037528C0E5282D1487
:0B0C1E00F528FF120CC0AF27020CD419
:060AF5008B278A288929E5
:100AFB00BF0103752A80BF0203752AC0E52A2D1496
:100B0B00F52AFF120CC0AB27AA28A9291205B6FF9C
:100B1B006010120CD474012529F529E43528F52829
:020B2B0080E464
:010B2D0022A5
:100C2900120BC27FCC120B967F44120B9630A0FD9B
:0D0C3900120BC27FCC120B967FBE020B96F1
:100BC200D2D730D721C2A07FF0120D5F7FF0120D75
:100BD2005FD2A07F3C120D5FA2A07FF0120D5F7F5B
:070BE200B4120D5F80DC225C
:100B6600E4F52CF52BE52CC313F52CC2A07F01125E
:100B76000D5FD2A07F01120D5F30A003432C807F52
:0F0B86003C120D5F052BE52BC3940840D8AF2C14
:010B9500223D
:020B96008F2BA3
:100B9800E4F52CC2A07F01120D5FE52BC313F52BE2
:100BA80092A07F3C120D5FD2A07F01120D5F052C31
:090BB800C3E52C6480948840DA46
:010BC1002211
:060ABA008B278A28892920
:100AC000E4F52AFF120C29120B668F2A120B66E539
:100AD0002845294527601DE52AC4540FFD7C00EFF9
:100AE00075F010A42DFFEC35F0AB27AA28A9298FAB
:040AF000F012068575
:010AF40022DF
:070003000B01011763320538
:100C460078277C007D007BFF7A0079037E007F0792
:0C0C56001205907B007A0079270207F25B
:100D2100EFD2917F08A2E092B4D292C292C313DFB4
:010D3100F4CD
:010D3200229E
:100CE800D2917F08C313D2B4A2B492E7D292C2922F
:030CF800DFF2FF29
:010CFB0022D6
:0E0BE900AB27AA28A929EF12060EE4FD7F8F84
:100BF700AE05C292D291120D210000AF06120D214F
:050C0700D292C291220F
:100CFC00C291C292D291120D210000120CE8D29234
:020D0C00C29192
:010D0E0022C2
:0607F2008B2E8A2F8930D6
:1007F800753180E4FD7F8E120BF7AB2EAA2FA9303E
:100808009000051205CFFF120C62AD07AF31120B35
:10081800F7AB2EAA2FA9309000041205CFFF120CB7
:1008280062AD07E5312402FF120BF7AB2EAA2FA900
:10083800309000031205CFFF120C62AD07E531249A
:1008480004FF120BF7AB2EAA2FA930900002120555
:10085800CFFF120C62AD07E5312406FF120BF7AB90
:100868002EAA2FA9309000011205CFFF120C62ADFD
:1008780007E5312408FF120BF7AB2EAA2FA93090F9
:1008880000061205CFFF120C62AD07E531240AFFFE
:10089800120BF7AB2EAA2FA9301205B6FF120C6265
:1008A800AD07E531240CFF120BF77D807F8E020B1C
:0108B800F748
:1009D6008B278A288929120BF37F81120CFC120CB3
:1009E600AB900005120BE97F83120CFC120CAB9046
:1009F6000004120BE97F85120CFC120CABAB27AA84
:100A060028A929900003120BEF7F87120CFC120C09
:100A1600ABAB27AA28A929900002120BEF7F8912F7
:100A26000CFC120CABAB27AA28A929900001120BCB
:100A3600EF7F8B120CFC120CABAB27AA28A92990CE
:100A46000006120BEF7F8D120CFC120CABAB27AA23
:070A560028A929EF0205FCAD
:100D33005448495320495320544F4F20484F54217E
:010D430000AF
:060D6A00120D530208B94E
:0C0D5300120D70120C29120C4602000E4A
:1008B900C2AF7B007A0079091209D67B007A0079E8
:1008C90024120ABAD2AFE5236059E513B4011FE433
:1008D900F5137510017F01120CC07F327E00120CD6
:1008E900957BFF7A0D79337D017F01120AF5AE24DC
:1008F900AF257C007D0A1206307C007D0A12063085
:10090900ED2430FB7D077F02120C0CAE24AF257C51
:10091900007D0A120630ED2430FB7D087F02120C9F
:100929000C8018E5137011F5107513017F01120C75
:10093900C07F327E00120C9512001E1202A8020816
:01094900B9F4
:100C9500E4FDEDC39FE49E500CE4FC0CECD394946E
:050CA50040F90D80ED97
:010CAA002227
:0B0D5F00AE071FEE6004000080F622CB
:100C6200E4FEEFC3940A400774F62FFF0E80F3EE02
:090C7200C454F0FEEF4206AF0687
:010C7B002256
:100CAB00EF540FFE530770EFC3132EFEEF13131306
:040CBB00541F2EFF95
:010CBF002212
:030D7300B2A12208
:030B62000132005D
:1002A8002095437F147E00120C95209531E5321479
:1002B800601514601714601914601B14601D240560
:1002C800701C7532018017753202801275320380F6
:1002D8000D75320480087532058003E4F5323095D7
:1002E800030204BF80F83096030203D67F147E0011
:1002F800120C953096030203CEE53224FE602614D4
:1003080060321470030203AB1470030203B92404AF
:1003180060030203CEE509B46306E4F5090203C5E8
:1003280005090203C5E50AB40C05750A0180020532
:100338000A0203C5E50A14B40C005065900352750F
:10034800F003A4C58325F0C5837302037602038CEA
:100358000203760203810203760203810203760216
:100368000376020381020376020381020376E50B1A
:10037800B41F028025050B8028E50BB41E02801AE5
:10038800050B801DE5095403600BE50BB41C0280C6
:1003980009050B800CE50BB41D05750B01800205E2
:1003A8000B801AE50CB41705E4F50C8002050C80E7
:1003B8000CE50DB43B05E4F50D8002050D7B007AD4
:1003C8000079091207F23096030204BF80F83097CB
:1003D800030204BF7F147E00120C953097030204B9
:1003E800BCE53224FE602514603114700302049BBE
:1003F8001470030204A8240460030204BCE5097015
:10040800067509630204B315090204B3E50AB401C9
:1004180005750A0C8002150A0204B3E50A14B40C27
:1004280000506E90043975F003A4C58325F0C58388
:100438007302045D02047902045D02046B02045D28
:1004480002046B02045D02045D02046B02045D0297
:10045800046B02045DE50BB40105750B1F803215B2
:100468000B802EE50BB40105750B1E8024150B803F
:1004780020E5095403600EE50BB40105750B1C80DB
:1004880010150B800CE50BB40105750B1D800215CA
:100498000B8018E50C7005750C178002150C800B85
:1004A800E50D7005750D3B8002150D7B007A00790E
:0804B800091207F23097FD2242
:10095600020D6AE493A3F8E493A34003F68001F240
:1009660008DFF48029E493A3F85407240CC8C333A2
:10097600C4540F4420C8834004F456800146F6DF71
:10098600E4800B0102040810204080900B2EE47EC8
:10099600019360BCA3FF543F30E509541FFEE49366
:1009A600A360010ECF54C025E060A840B8E493A32D
:1009B600FAE493A3F8E493A3C8C582C8CAC583CA58
:1009C600F0A3C8C582C8CAC583CADFE9DEE780BE10
:010B6500008F
:1004C000E709F608DFFA8046E709F208DFFA803E1E
:1004D00088828C83E709F0A3DFFA8032E309F6080B
:1004E000DFFA8078E309F208DFFA807088828C8373
:1004F000E309F0A3DFFA806489828A83E0A3F60827
:10050000DFFA805889828A83E0A3F208DFFA804C00
:1005100080D280FA80C680D4806980F280338010D7
:1005200080A680EA809A80A880DA80E280CA803340
:1005300089828A83ECFAE493A3C8C582C8CCC583B8
:10054000CCF0A3C8C582C8CCC583CCDFE9DEE78088
:100550000D89828A83E493A3F608DFF9ECFAA9F007
:10056000EDFB2289828A83ECFAE0A3C8C582C8CC5D
:10057000C583CCF0A3C8C582C8CCC583CCDFEADE76
:10058000E880DB89828A83E493A3F208DFF980CCD8
:1005900088F0EF60010E4E60C388F0ED2402B404D1
:1005A0000050B9F582EB2402B4040050AF23234578
:0605B00082239005107388
:1005B600BB010689828A83E0225002E722BBFE0243
:0905C600E32289828A83E4932276
:1005CF00BB010CE58229F582E5833AF583E02250E1
:1005DF0006E92582F8E622BBFE06E92582F8E2222B
:0D05EF00E58229F582E5833AF583E4932245
:1005FC00BB010689828A83F0225002F722BBFE01DE
:02060C00F322D7
:10060E00F8BB010DE58229F582E5833AF583E8F022
:10061E00225006E92582C8F622BBFE05E92582C8CE
:02062E00F222B6
:10063000BC000BBE0029EF8DF084FFADF022E4CCAE
:10064000F875F008EF2FFFEE33FEEC33FCEE9DEC77
:10065000984005FCEE9DFE0FD5F0E9E4CEFD22EDBD
:10066000F8F5F0EE8420D21CFEADF075F008EF2F07
:10067000FFED33FD4007985006D5F0F222C398FDF8
:050680000FD5F0EA2295
:10068500BB010A89828A83F0E5F0A3F0225006F7C0
:0F06950009A7F01922BBFE06F3E5F009F31922BD
:00000001FF
